:100000000C9435000C945D000C945D000C945D0024
:100010000C945D000C945D000C945D000C945D00EC
:100020000C945D000C945D000C945D000C945D00DC
:100030000C945D000C945D000C945D000C945D00CC
:100040000C94A7010C945D000C9417020C94F10120
:100050000C945D000C945D000C945D000C945D00AC
:100060000C945D000C945D00170311241FBECFEFAC
:10007000D8E0DEBFCDBF21E0AAE1B1E001C01D9212
:10008000A43CB207E1F711E0A0E0B1E0EEE1FBE053
:1000900002C005900D92AA31B107D9F710E0C5E36F
:1000A000D0E004C02197FE010E947B03C433D10736
:1000B000C9F70E9449020C948D050C9400008E3003
:1000C00008F08E508770806480937C0080917A0065
:1000D000806480937A0080917A0086FDFCCF8091C5
:1000E00078002091790090E0922B08953FB7F89422
:1000F0008091BC019091BD01A091BE01B091BF0162
:1001000026B5A89B05C02F3F19F00196A11DB11D72
:100110003FBFBA2FA92F982F8827820F911DA11DAD
:10012000B11DBC01CD0142E0660F771F881F991FEA
:100130004A95D1F70895CF92DF92EF92FF920F93F5
:100140001F93CF93DF936C017A018B01C0E0D0E065
:10015000CE15DF0589F0D8016D918D01D601ED91A5
:10016000FC910190F081E02DC6010995892B11F4D5
:100170007E0102C02196ECCFC701DF91CF911F9184
:100180000F91FF90EF90DF90CF900895089580E059
:1001900090E00895FC01538D448D252F30E0842F8D
:1001A00090E0821B930B541710F0CF96089501979F
:1001B0000895FC01918D828D981761F0828DDF0189
:1001C000A80FB11D5D968C91928D9F5F9F73928F4A
:1001D00090E008958FEF9FEF0895FC01918D828D3F
:1001E000981731F0828DE80FF11D858D90E008950C
:1001F0008FEF9FEF0895FC01918D228D892F90E064
:10020000805C9F4F821B91098F73992708958AE123
:1002100091E00E94FB0021E0892B09F420E0822F6D
:100220000895FC01848DDF01A80FB11DA35ABF4FB3
:100230002C91848D90E001968F739927848FA689E5
:10024000B7892C93A089B1898C9180648C93938D0C
:10025000848D981306C00288F389E02D80818F7DFC
:1002600080830895EF92FF920F931F93CF93DF93B4
:10027000EC0181E0888F9B8D8C8D981305C0E889F7
:10028000F989808185FD24C0F62E0B8D10E00F5F6B
:100290001F4F0F731127E02E8C8DE8120CC00FB684
:1002A00007FCFACFE889F989808185FFF5CFCE0177
:1002B0000E941101F1CF8B8DFE01E80FF11DE35A71
:1002C000FF4FF0820B8FEA89FB898081806207C033
:1002D000EE89FF896083E889F98980818064808361
:1002E00081E090E0DF91CF911F910F91FF90EF900F
:1002F0000895CF93DF93EC01888D8823C9F0EA89B4
:10030000FB89808185FD05C0A889B9898C9186FD0E
:100310000FC00FB607FCF5CF808185FFF2CFA8890B
:10032000B9898C9185FFEDCFCE010E941101E7CFF5
:10033000DF91CF91089580E090E0892B29F00E9411
:10034000070181110C94000008950E9478051F9206
:100350000F920FB60F9211242F933F938F939F9379
:10036000AF93BF938091B8019091B901A091BA0168
:10037000B091BB013091B70123E0230F2D3720F45A
:100380000196A11DB11D05C026E8230F0296A11DEF
:10039000B11D2093B7018093B8019093B901A09348
:1003A000BA01B093BB018091BC019091BD01A091B5
:1003B000BE01B091BF010196A11DB11D8093BC018A
:1003C0009093BD01A093BE01B093BF01BF91AF91C7
:1003D0009F918F913F912F910F900FBE0F901F9083
:1003E00018951F920F920FB60F9211242F933F93DF
:1003F0004F935F936F937F938F939F93AF93BF932D
:10040000EF93FF938AE191E00E941101FF91EF9138
:10041000BF91AF919F918F917F916F915F914F911C
:100420003F912F910F900FBE0F901F9018951F9224
:100430000F920FB60F9211242F938F939F93EF93E8
:10044000FF93E0912A01F0912B018081E09130012E
:10045000F091310182FD12C09081809133018F5F54
:100460008F7320913401821751F0E0913301F0E055
:10047000E65EFE4F958F8093330101C08081FF912E
:10048000EF919F918F912F910F900FBE0F901F9022
:100490001895789484B5826084BD84B5816084BDEC
:1004A00085B5826085BD85B5816085BD80916E0012
:1004B000816080936E001092810080918100826043
:1004C0008093810080918100816080938100809180
:1004D00080008160809380008091B100846080936F
:1004E000B1008091B00081608093B00080917A006B
:1004F000846080937A0080917A00826080937A0091
:1005000080917A00816080937A0080917A0080687F
:1005100080937A001092C100E0912A01F0912B01A2
:1005200082E08083E0912601F09127011082E09122
:100530002801F09129018FEC808310923201E09123
:100540002E01F0912F0186E08083E0912C01F09143
:100550002D01808180618083E0912C01F0912D013B
:10056000808188608083E0912C01F0912D01808151
:1005700080688083E0912C01F0912D0180818F7D36
:1005800080838EE00E945F007C018FE00E945F000C
:100590008E0D9F1D8C01085E1E4F0115110599F0EF
:1005A000F80101900020E9F7BF01601B710B80E0AA
:1005B00090E00E94AE04EC01009739F01882B80177
:1005C0000E94860502C0C0E0D0E06E2D8AE191E075
:1005D0000E9432010E9476004B015C0188EEC82E19
:1005E00083E0D82EE12CF12C0E947600DC01CB01B7
:1005F00088199909AA09BB09883E9340A105B1054C
:1006000058F021E0C21AD108E108F10888EE880EFE
:1006100083E0981EA11CB11CC114D104E104F104B3
:1006200019F7CE010E9416040E949B01AACFEAE1AD
:10063000F1E01382128288EE93E0A0E0B0E08483C0
:100640009583A683B7838AE091E09183808385ECCC
:1006500090E09587848784EC90E09787868780EC8C
:1006600090E0918B808B81EC90E0938B828B82EC7D
:1006700090E0958B848B86EC90E0978B868B118E27
:10068000128E138E148E08952F923F924F925F9286
:100690006F927F928F929F92AF92BF92CF92DF9292
:1006A000EF92FF920F931F93CF93DF93CDB7DEB7F7
:1006B000CA1BDB0B0FB6F894DEBF0FBECDBF09948B
:1006C0002A88398848885F846E847D848C849B84E2
:1006D000AA84B984C884DF80EE80FD800C811B81F0
:1006E000AA81B981CE0FD11D0FB6F894DEBF0FBE1F
:1006F000CDBFED010895EE0FFF1F0590F491E02DA1
:100700000994CF93DF938230910510F482E090E05A
:10071000E091C201F091C30120E030E0C0E0D0E000
:10072000309711F14081518148175907C0F048179F
:10073000590761F482819381209719F09B838A8302
:100740002BC09093C3018093C20126C021153105AF
:1007500019F04217530718F49A01BE01DF01EF01A7
:100760000280F381E02DDCCF2115310509F1281B32
:10077000390B2430310590F412968D919C9113978A
:100780006115710521F0FB019383828304C090936E
:10079000C3018093C201FD01329644C0FD01E20F06
:1007A000F31F81939193225031092D933C933AC0CA
:1007B0002091C0013091C101232B41F4209102010D
:1007C000309103013093C1012093C00120910001B9
:1007D000309101012115310541F42DB73EB740910B
:1007E000040150910501241B350BE091C001F091EB
:1007F000C101E217F307A0F42E1B3F0B281739079E
:1008000078F0AC014E5F5F4F2417350748F04E0F6C
:100810005F1F5093C1014093C0018193919302C027
:10082000E0E0F0E0CF01DF91CF9108950F931F93A7
:10083000CF93DF93009709F48CC0FC0132971382A9
:1008400012820091C2011091C3010115110581F4BA
:1008500020813181820F931F2091C0013091C1010D
:100860002817390779F5F093C101E093C00171C0F1
:10087000D80140E050E0AE17BF0750F412962D911A
:100880003C911397AD012115310509F1D901F3CF41
:100890009D01DA013383228360817181860F971F66
:1008A0008217930769F4EC0128813981260F371FDD
:1008B0002E5F3F4F318320838A819B819383828384
:1008C000452B29F4F093C301E093C20142C0139673
:1008D000FC93EE931297ED01499159919E01240FDB
:1008E000351FE217F30771F480819181840F951F02
:1008F000029611969C938E938281938113969C937A
:100900008E931297E0E0F0E0D80112968D919C91C1
:100910001397009719F0F8018C01F6CF8D919C91F7
:1009200098012E5F3F4F820F931F2091C00130919D
:10093000C1012817390769F4309729F41092C301CF
:100940001092C20102C0138212821093C10100935F
:10095000C001DF91CF911F910F910895A0E0B0E009
:10096000E4EBF4E00C944803EC01009721F4CB0194
:100970000E948103B8C0FC01E60FF71F9C012250C2
:100980003109E217F30708F4ACC0D9010D911C91AD
:10099000119706171707B0F00530110508F49FC02E
:1009A000C80104978617970708F499C002501109E7
:1009B000061B170B019311936D937C93CF010E943B
:1009C00016048DC05B01A01AB10A4C01800E911E65
:1009D000A091C201B091C30140E050E0E12CF12CA4
:1009E000109709F44AC0A815B905D1F56D907C900F
:1009F0001197630182E0C80ED11CCA14DB0480F198
:100A0000A3014A195B096A0182E0C80ED11C129643
:100A1000BC9012971396AC91B5E0CB16D10440F080
:100A2000B282A38351834083D9016D937C930AC022
:100A30000E5F1F4FC301800F911FF90191838083C7
:100A4000EB2DFA2FE114F10431F0D7011396FC934A
:100A5000EE93129744C0F093C301E093C2013FC0EC
:100A60008D919C9111974817590708F4AC017D01AD
:100A700012960D90BC91A02DB3CF8091C0019091A2
:100A8000C10188159905E1F446175707C8F480910C
:100A9000000190910101009741F48DB79EB74091FC
:100AA000040150910501841B950BE817F907C8F460
:100AB000F093C101E093C001F901718360830FC01D
:100AC000CB010E9481037C01009759F0A801BE016F
:100AD0000E947D05CE010E941604C70104C0CE010C
:100AE00002C080E090E0CDB7DEB7EEE00C94640386
:100AF00081E090E0F8940C948D05FB01DC0102C0CC
:100B000001900D9241505040D8F70895FB01DC014F
:0E0B100001900D920020E1F70895F894FFCFB8
:100B1E000000C40180000000000032019B00CA00EA
:0A0B2E007901FB00D900ED003B0047
:00000001FF
